:020000040800F2
:10000000D81A0020E5010008DD380008093500088D
:100010005D380008E11B0008155D000800000000C5
:10002000000000000000000000000000B1430008D4
:10003000591E0008000000008B3C0008B343000874
:10004000FF010008FF010008FF010008FF01000890
:10005000FF010008FF010008FF010008FF01000880
:10006000FF010008FF010008FF010008FF01000870
:10007000FF010008FF010008FF010008FF01000860
:10008000FF010008FF010008FF010008FF01000850
:10009000915C0008FF010008FF010008FF01000853
:1000A000FF010008FF010008FF010008FF01000830
:1000B000FF010008FF010008FF010008FF01000820
:1000C000FF010008FF010008FF010008FF01000810
:1000D000FF010008FF010008FF010008FF01000800
:1000E000FF010008FF010008FF01000800F002F80E
:1000F00000F068F80AA090E8000C82448344AAF15A
:100100000107DA4501D100F05DF8AFF2090EBAE857
:100110000F0013F0010F18BFFB1A43F0010318473B
:100120002C7500004C7500000A444FF0000C10F8CC
:10013000013B13F0070408BF10F8014B1D1108BF65
:1001400010F8015B641E05D010F8016B641E01F805
:10015000016BF9D113F0080F1EBF10F8014BAD1C55
:100160000C1B09D16D1E58BF01F801CBFAD505E073
:1001700014F8016B01F8016B6D1EF9D59142D6D3CD
:10018000704700000023002400250026103A28BFF5
:1001900078C1FBD8520728BF30C148BF0B607047F9
:1001A0001FB500F04DFC04000020002106F082F98C
:1001B000401C60600020002106F066F9E0601FBD71
:1001C00010B510BD00F07EFE1146FFF7E9FF06F006
:1001D00083F801F0CFF803B4FFF7F2FF03BC01F09E
:1001E00035F900000948804709480047FEE7FEE767
:1001F000FEE7FEE7FEE7FEE7FEE7FEE7FEE7FEE7D7
:1002000004480549054A064B704700002D44000884
:10021000ED000008D8140020D81A0020D8160020BD
:10022000D81600200FB400B58DB010A90990009128
:100230000B904FF0FF300A9000200C900648784455
:100240000690064878446A4607900F9909A800F07E
:10025000C7FB0DB05DF814FBBF070000D707000017
:100260002DE9FF5F4FF00008994614464646916914
:10027000D2E901A7DDF838B001988847054659EA68
:100280000B0005D009E0A1690198761C8847054656
:10029000216A284688470028F5D1681C03D05FEA08
:1002A000CA7005D015E04FF0FF3004B0BDE8F09FF4
:1002B0002068011D2160D0F800800AE05FEACA7062
:1002C00001D108F8015BA169761C01987F1E88475F
:1002D0000546002F1ADD681C18D0B9F1000F0DD0AB
:1002E000E81705EBD060421120F01F0059F82210EA
:1002F0002A1A012090400142E0D107E0BBF1000F33
:10030000DCD12846216A88470028D7D0E1690198C6
:100310008847BBF1000F07D1002E05DD5FEACA70E8
:1003200002D1002188F80010A068B84203DDBBF1BB
:10033000000F03D017B16FF00100B6E73046B4E705
:10034000032A40F2308010F0030C00F0158011F801
:10035000013BBCF1020F624498BF11F801CB00F8D9
:10036000013B38BF11F8013BA2F1040298BF00F82D
:1003700001CB38BF00F8013B11F0030300F02580EA
:10038000083AC0F0088051F8043B083A51F804CB11
:10039000A0E80810F5E7121D5CBF51F8043B40F8D7
:1003A000043BAFF30080D20724BF11F8013B11F8E2
:1003B00001CB48BF11F8012B24BF00F8013B00F826
:1003C00001CB48BF00F8012B704710B5203AC0F0B0
:1003D0000B80B1E81850203AA0E81850B1E8185046
:1003E000A0E81850BFF4F5AF5FEA027C24BFB1E883
:1003F0001850A0E8185044BF18C918C0BDE81040F4
:100400005FEA827C24BF51F8043B40F8043B08BFFC
:100410007047D20728BF31F8023B48BF11F8012BC3
:1004200028BF20F8023B48BF00F8012B70474FF06F
:1004300000020429C0F0128010F0030C00F01B80B1
:10044000CCF1040CBCF1020F18BF00F8012BA8BFBF
:1004500020F8022BA1EB0C0100F00DB85FEAC17C83
:1004600024BF00F8012B00F8012B48BF00F8012B36
:1004700070474FF0000200B5134694469646203967
:1004800022BFA0E80C50A0E80C50B1F12001BFF44D
:10049000F7AF090728BFA0E80C5048BF0CC05DF8B3
:1004A00004EB890028BF40F8042B08BF704748BF01
:1004B00020F8022B11F0804F18BF00F8012B704775
:1004C00070477047704710B500F0BEFA006810BD65
:1004D00010B5044600F0B8FA046010BD2DE9FF4FD6
:1004E00006468BB00878FF2806D0491C2D2805D079
:1004F00000244FF0000908E000200CE00124F8E798
:1005000009EB8903491C00EB43090878FF28F7D160
:1005100014B1C9F100008146107800252C46AA4686
:1005200029462D2801D02B2804D1521C2D2813D068
:10053000002082468B461078FF280FD04FF0000C29
:100540000A21521CA5FB017804FB018105FB0C115B
:10055000C5194BEB0104EEE70120EAE7002108464C
:100560004FF00000BAF1000F02D000EB800040080D
:10057000C0F38157012F01DD4FF0FF370E9955EA87
:10058000040009EB01080BD04FF0020918F5FA7FBF
:1005900016DA4FEACA70002F706008DD012007E00C
:1005A0004FEACA70C6E900B00FB0BDE8F08F002076
:1005B000306000F049FAC0F800901821084616E0B3
:1005C000B8F5FA7F18DD002F02DAF748784401E029
:1005D000F6487844D0E90010C6E9001040EACA7035
:1005E000706000F031FAC0F80090142108460FB096
:1005F000BDE8F04F06F0DABE002108464FF00000DB
:10060000B8F10001099002DAC7F1000200E03A46B1
:1006100001DAC8F1000106A800F0DEFB06AB93E8A2
:10062000070003AB83E8070044F23E005BEA0401E5
:100630000090584604D144F21E012C465D460091BC
:10064000210C0904014306D10099240444EA15440D
:100650002D041039009104F07F41014306D1009927
:10066000240244EA15642D020839009104F0704117
:10067000014306D10099240144EA15742D01091F94
:10068000009104F04041014306D10099A40044EADE
:100690009574AD00891E009104F00041084304D117
:1006A00000986D196441401E00904FF001033A46D6
:1006B0006846B8F1000FCDE9014503A902DD01F05C
:1006C00058F901E001F02BF9BAF1000F04460D468C
:1006D00001D084F00044002108464FF00000099941
:1006E00040F2FF77484010F00C0F07D124F0004093
:1006F000284303D0C4F30A50B84212D100F0A4F941
:10070000C0F80090C4F30A50B8420AD1A84878440F
:10071000D0E90010C6E9001004F000410843706001
:1007200042E7C6E900543FE72DE9FF4F1F464FF06F
:10073000000A4FF0FF38454691B0D7E90146CDF8A1
:100740003CA000F07DF9C0680168405C1090B96978
:1007500012986D1C8847396A814688470028F6D16F
:10076000B9F1FF3F0AD0002E24F4D06411DDB9F1B5
:100770002B0F08D0B9F12D0F0BD102E0404615B078
:1007800013E744F48064B96912986D1C8847761E9B
:100790008146600504A901D52D2000E02B20002E04
:1007A00001F1010B0DF130088DF810003FDDB9F1BA
:1007B000690F08D0B9F1490F05D0B9F16E0F02D019
:1007C000B9F14E0F1CD13B4601A8009580E85002BC
:1007D000DDE912126FF0020006F075FEC11CCED1E9
:1007E0000EE0B96912986D1C884781461398761EF1
:1007F00044F4007405600F98401C002E0F9016DD25
:10080000B9F1300FEDD0B9F1780F02D0B9F1580F2E
:100810000DD10F9801280AD13B46CDE90054DDE9FE
:100820001212001F029606F04CFEC11CA7D11099AF
:1008300089453ED144F0800406E01399681CAAF172
:10084000010A44F400740860B9696D1C1298761EA0
:10085000884730288146F0D02BE01099894505D192
:10086000200603D4761E44F0800418E0484605F0C4
:100870004EFB08B3761E0DF123018B4544F4007442
:1008800008D2A9F130000BF8010B200607D5AAF118
:10089000010003E0200602D40AF101008246A0050F
:1008A00002D51399681C0860B96912986D1C8847B5
:1008B0008146002ED1DC53E0002E51DDB9F1650FE9
:1008C00002D0B9F1450F4BD1A00549D5B9696D1CCE
:1008D0001298761E24F440748847002E81460CDD61
:1008E0002B2804D0B9F12D0F07D144F48074B969D5
:1008F00012986D1C8847761E8146E00501D52D2192
:1009000000E02B2108F8011BCDF8008021E0761EC5
:100910000DF13901884544F400740CD2A9F130007E
:1009200010F0FF0088F8000002D10099884509D92D
:1009300008F1010806E0E00501D51E4801E042F299
:100940000F708246B96912986D1C884781461398CA
:100950000560002E04DD484605F0D9FA0028D6D1FE
:10096000F96912988847FF2053468BF8000088F8F1
:10097000000000200A900B9004AA0CA90AA8FFF717
:10098000ADFDA00502D46FF00100F8E614F0240FCD
:1009900012D0E0071CD13868DDE90A12031D3B6064
:1009A0000068C0E9001213E0A47000009670000017
:1009B0005A6F0000F1D8FFFF0AA9684605F036FA21
:1009C000E00705D13868009A011D396000680260AF
:1009D0002846D4E60268114413780160184670472F
:1009E000D16005497944516104497944116200217B
:1009F0001161114600F036B8EDFFFFFF6300000003
:100A0000426842B1016811F8013B23B1521EC0E9AE
:100A10000012184670470121C160881E7047426865
:100A20005AB1C368016843B983688B4205D0491E37
:100A3000521CC0E90012002070474FF0FF30704791
:100A40000048704794140020004870477414002038
:100A500010B5044600F05CFA0068005D00F001008B
:100A600010BD00002DE9F34F4FF0000A0C4656462A
:100A70008DB001200C9001F10C000B9062690B9875
:100A800001219047051E2DD0252D2CD0216A8847A5
:100A9000C0B162690B9801219047216A88470028FC
:100AA000F7D16269411E0B98904700E0761CA1695E
:100AB0000D988847216A88470028F7D1E1690D9889
:100AC0008847DBE7A1690D988847A842074601D10E
:100AD000761CD3E7E1690D9888477F1C02D1BAF1F3
:100AE000000F6FD06BE162690B9800273D463946D5
:100AF00090472A2804D162690B980121904701256B
:100B0000DFF8D08262690B9801219047A0F1300193
:100B10000A290AD24745E5DC07EB870100EB4107CC
:100B2000303FDFD445F01005ECE7E90601D46FF063
:100B300000476C280AD04C2814D0682815D06A28A1
:100B40000DD074281CD07A281AD01DE062690B9849
:100B5000012190476C2802D045F0040514E045F0CF
:100B600002050DE045F020050AE062690B980121BD
:100B70009047682802D045F0080505E045F4006577
:100B800062690B9801219047C4E9015765283DD05F
:100B900019DC58287AD00CDC452837D004DC25280D
:100BA00026D041289ED131E046282FD0472899D120
:100BB0002CE05B2877D0612828D063287CD064287B
:100BC00023D15AE0F6E06F2848D008DC66281DD013
:100BD00067281BD0692821D06E2816D127E07028FD
:100BE00045D0732868D0752847D078280DD14DE0BE
:100BF000A1690D988847252805463FF469AFE1694A
:100C00000D9888476D1C3FF46AAFD8E00D992346D4
:100C10006A466FF0010006F052FCC5E045F0400066
:100C200023464FF000026060A80736D43EE0E80794
:100C30007FF447AF2068011D21600068290501D5B8
:100C400006701BE7290701D5068017E7A90703D51A
:100C5000F117C0E9006111E706600FE745F04000B9
:100C600023464FF008026060A80716D41EE040F645
:100C70000E0125EA0100606016E045F040002346C1
:100C80004FF00A026060A80707D40FE045F040006B
:100C90006060A80708D5234610220D996FF0010067
:100CA000AFF3008080E007E0102223460D996FF03B
:100CB0000100AFF3008077E04FF0000963284F4652
:100CC000C8464B46CB4602D05B2806D038E0E80643
:100CD00001D40120A060012732E06269D4F80CB091
:100CE0000B98012190475E2807D14FF00109494632
:100CF0006269D4F80CB00B989047216939B900218A
:100D00000A4603AB43F82120491C0829FADBD8B373
:100D1000216949B308F1010862690B9801219047E4
:100D20005D28F4D1B9F1000F09D0002003A951F8D2
:100D30002020D24341F82020401C0828F7DB03ABD9
:100D40002069002820794FEA40701ED05B46224679
:100D5000CDF80080CDE901970D9900286FF00100D2
:100D600020DAAFF300801FE0C11703AA00EBD161C6
:100D70004B1121F01F0102EB8302411A136801207D
:100D8000884003431360C7E719E00D992246002805
:100D90006FF00100009702DAAFF3008004E0FFF784
:100DA0005FFA01E0AFF3008000280ADA401C06D1A8
:100DB0000C9820B14FF0FF300FB0BDE8F08F5046D7
:100DC000FAE7E90701D10AF1010A064400200C9074
:100DD00054E60000CCCCCC0C2DE9F04781461646F9
:100DE0008AB0354878440DC88DE80D003248784403
:100DF000801C03AC0DC884E80D0041F69B3008440C
:100E0000372190FBF1F290FBF1F5A5F1800501FB94
:100E100012041B3C02D56442012000E00020DFF8F0
:100E200098A080460027FA44AAF1BE0A0EE0E00727
:100E30000AD03246684607EB470101230AEB8101DD
:100E400000F082FD8DE8070064107F1C002CEED1BD
:100E5000194F7F44AE3F19E0E80715D007EB0410A7
:100E60000DF1180A90E80E008AE80E00C068F04202
:100E700001D1981908903246012306A903A800F071
:100E800063FD03AB83E807006D10641C002DE3D104
:100E90004FF0010332466946B8F1000F03A802D0B3
:100EA00000F028FD01E000F04FFDC9E90001C9F89C
:100EB00008200AB0BDE8F0874C6800000048704781
:100EC000741400207546FFF7F9FFAE460500694629
:100ED000534620F00700854618B020B5FFF790F97B
:100EE000BDE820404FF000064FF000074FF000082B
:100EF0004FF0000B21F00701AC46ACE8C009ACE8AC
:100F0000C009ACE8C009ACE8C0098D4670470000D4
:100F100010B5FFF795FD001D10BD00BF99550000ED
:100F20002DE9FF4F1F464FF03C0987B04FF00042BC
:100F3000DDE9141001F10108DDF858A002EA405083
:100F40000390002005908346054604460490B96945
:100F5000461E08988847AAF1010A0290BAF1000FCC
:100F60003BDD02982E2815D0102100F060FA0028F1
:100F70002EDB4FF0010B0599014317D0B9F1000F9B
:100F80000BDB4A46C11700F03FFA05430C43A9F1B9
:100F9000040905E0012004900BE008B145F00105CB
:100FA00001200590049820B9361D02E0049800B194
:100FB000361FB969089808F101088847BBF1000F8E
:100FC000AAF1010A0290C9D00999C1F80080C5E7C9
:100FD0000298702808D0502806D0F96908988847E8
:100FE000BBF1000F14D04FE0002002900120BBF1B4
:100FF000000F049009D0B969089808F101088847E2
:10100000AAF10109B9F1000F07DCF96908988847CE
:101010006FF001000BB0BDE8F08F2B2804D02D2815
:101020000CD14FF0FF300490B969089808F101081D
:101030008847A9F10109B9F1000FE6DD411CE4D0B0
:101040000A2100F0F4F90028DFDB029908F1010819
:1010500001EB810100EB41000290B96908988847D3
:101060000A2100F0E4F9099AA9F10109B9F1000F88
:10107000C2F8008001DD0028E7DAF969089888479E
:101080000499029800FB016655EA040004D004F0BC
:101090004041090002D006E0039898E0A40044EA29
:1010A0009574AD00B61E04F00041080002D16D1920
:1010B0006441761E159810F0240F03D04FF00B09F1
:1010C0005C4803E04FF028096FF07D0082465645EA
:1010D00007DAAAEB06018944B9F1410F01DD4FF0AF
:1010E000410901200021A9F1010200F08DF9024619
:1010F00028400B462140084301D0012100E0002197
:10110000501E029143F1FF3128402140084301D095
:10111000012000E000200299834651EA0B014FD0E4
:10112000002108464FF00000039900F4400039B157
:1011300000EB80004FF4400100EBD07001EA60004A
:101140008015012802DD4FF0FF3000E013D0401C75
:1011500036D0029860B3BBF1000F0CD14A46012093
:10116000002100F051F928402140084301D001201E
:1011700000E00020E0B101204A46002100F044F9DF
:10118000034640190A4661412D1A8C4111D3B9F129
:10119000400F09DD159810F0240F02D0AAF1340693
:1011A00003E0AAF1170600E0761C00254FF000448A
:1011B00006E05B1E42F1FF3220EA030521EA020449
:1011C000CAF10100B04206DA1B49039808430190B6
:1011D000002000900EE0039AC4F3D321E80A0A43EA
:1011E000164940EA44500A433146CDE900026846B8
:1011F00004F082FE159810F0240F0BD01598C0074C
:1012000015D13868DDE90012031D3B600068C0E9B4
:1012100000120CE002A8694604F008FE1598C00709
:1012200005D13868029A011D3960006802604046A5
:10123000F0E6000002FCFFFF0000F07F0000F03F3E
:101240002DE9FF4F92461D4685B04FF00041DDE984
:10125000124BDDE914727F1E01EA4B50414940F008
:10126000FF4940EA0108002122F0200049280491AA
:1012700002D04E2828D04CE03BA0012607C88DE8BC
:101280000700A9690698641C88477F1E014606D49A
:101290001DF8060018B121F0200181420BD0E96948
:1012A00006988847032E34D0082E32D06FF0010004
:1012B00009B0BDE8F08F761C032E01D0082EE0D1D6
:1012C000601CCAF80000DCE7A9690698641C88471E
:1012D0007F1E2AD420F02000412826D1A969069833
:1012E000641C88477F1E20D420F020004E281CD18B
:1012F000A9690698641C88477F1E48F4002849F4B1
:101300008009CAF8004001D4282806D0E969069867
:1013100088475FEACB7012D022E0A9690698641C66
:1013200088477F1E01D4002803DAE96906988847B8
:10133000BCE72928F1D1641CCAF80040E9E71BF09A
:10134000240F07D028680499031D2B600068C0E9AA
:10135000001805E02868021D2A600068C0F80090A7
:101360002046A5E70000F07F494E46494E495459B2
:101370000000000010B50446AFF300802046BDE831
:101380001040FEF728BF00004FF0013C50F8042B3E
:1013900051F8043B9A4221D1A2EB0C03934313EA88
:1013A000CC1317D150F8042B51F8043B9A4215D1B5
:1013B000A2EB0C03934313EACC130BD150F8042B8C
:1013C00051F8043B9A4209D1A2EB0C03934313EA70
:1013D000CC13DBD04FF00000704700BFD01A01BA29
:1013E000B1FA81F101F0180122FA01F0CB40C1F10C
:1013F0002001DBB2C0B2C01A2CFA01F3D11A91431A
:1014000011EAC311E6D17047B2F120030AD5C2F147
:10141000200301FA02F120FA03F300FA02F041EA94
:101420000301704700FA03F14FF0000070473A28BB
:1014300000D2303820F02002412A01D3A2F1370037
:10144000884201D34FF0FF30704700000149182057
:10145000ABBEFEE726000200704720F07F4C80EA1A
:10146000030023F07F47ACEB070303F57C5300F048
:10147000004003F1FF032DE980494FEA154B09B401
:101480004FEA144325EA0B4E24EA03480FF20426E0
:1014900006EB132749083E785FEA320203FB066732
:1014A000C7F5000707FB06F64FEA54374FEAD64662
:1014B00006F1020607FB066CCCF1005C4FEA1C4704
:1014C0002CEA074C07FB06F40CFB06F504EB15466B
:1014D0004FEA961634BF00204FF000404FEAD13754
:1014E00006FB07FC4FEA1C4C0CFB0BF7D21B03FB63
:1014F0000CF761EB07010CFB0EF7B0EB074072EB4A
:1015000017420CFB08F734BFA2EB0742B2EB0742CD
:1015100061EB17414FEA0C444FEA910706FB07FCC9
:101520004FEA1C4C0CFB0BF7B0EBC74072EB573289
:1015300003FB0CF734BFA2EBC742B2EBC74261EB2F
:1015400057310CFB0EF7B0EBC70072EB57720CFB78
:1015500008F734BFA2EBC702B2EBC70261EB5771C9
:10156000039F4FEA816141EA921104EBCC044FEAF8
:10157000D1374FEA826206FB07FC42EA90124FEA3B
:1015800080604FEA1C4C0CFB0BF7D21B03FB0CF7E3
:1015900061EB07010CFB0EF7B0EB074072EB174253
:1015A0000CFB08F734BFA2EB0742B2EB074261EB3A
:1015B00017414FEA8C554FEA910704EB9C2406FB38
:1015C00007FC4FEA1C4C0CFB0BF7B0EBC74072EB6F
:1015D000573203FB0CF734BFA2EBC742B2EBC74252
:1015E00061EB57310CFB0EF7B0EBC70072EB577293
:1015F0000CFB08F734BFA2EBC702B2EBC70261EBEA
:10160000577115EB4C254FEA816141EA92114FEA7F
:1016100082624FEAD13742EA901206FB07FC44F19E
:1016200000044FEA80604FEA1C4C0CFB0BF7D21B06
:1016300003FB0CF761EB07010CFB0EF7B0EB074067
:1016400072EB17420CFB08F734BFA2EB0742B2EB78
:10165000074261EB174115EB1C154FEA813141EA56
:1016600092414FEA823242EA90424FEA80304FEA9A
:101670000C7644F1000448EA03434EEA0B484FF06D
:10168000000EB2EB080C71EB030724BF624639462B
:101690004EEB0E0E4FF0000B0018524149414BEB40
:1016A0000B0BB2EB080C71EB03077BF1000B24BFB3
:1016B000624639464EEB0E0E4FF0000B00185241B9
:1016C00049414BEB0B0BB2EB080C71EB03077BF1C1
:1016D000000B24BF624639464EEB0E0E51EA02075C
:1016E00018BF46F0010616EB0E7655F1000254F1D4
:1016F000000103D5BDE88901BDE80088BDE8890186
:10170000BDE80048B619524141EB0101A3F10103C4
:10171000704780807F7E7D7C7B7A7978777676755E
:101720007473727171706F6E6E6D6C6C6B6A6A69D6
:101730006868676666656464636362616160605F70
:101740005F5E5E5D5D5C5C5B5B5A5A5959585857E9
:101750005756565555555454535352525251515051
:1017600050504F4F4F4E4E4D4D4D4C4C4C4B4B4BA4
:101770004A4A4A49494948484847474747464646EA
:101780004545454444444443434343424242424125
:101790004141000046EA0646A3F570534FEA16465B
:1017A00046EA42564FEAD22242EA415210B54FEA87
:1017B000D121A3F1010300F02FF820F0004000F147
:1017C000020C00F0004701EB00501146BCF5006F21
:1017D00040EA070000D210BDBAF1000F0AD01CB5D4
:1017E00003B44FF004004FF004014FF000000FBCB1
:1017F000BDE810404FF00001BBF1010FB9BF044834
:101800004FF0FF310348002140EA070010BD00BF40
:10181000FFFFEF7F0000F07F002B9C4630D4770065
:101820002BD01CB54FEA370703B44FF010004FF030
:101830001001BAF1000F06D0BCF1000FDCBF40F080
:10184000080040F008014FF000000FBCBDE8104058
:101850000BF1010BBBF1010F08BF5FEA170722BFB5
:1018600012F1010211F101014FF0004143F10003B7
:1018700000F0004043EA00007047F9D35708D0E772
:1018800046EA064613F1400F4FEA16461FDD13F1F4
:10189000200FDFBF16430A46002120335B42BED033
:1018A000C3F1200746EA064602FA07F74FEA164652
:1018B00046EA0706C3F1200722FA03F201FA07F706
:1018C00021FA03F14FF0000342EA0702A7E746EAD4
:1018D000020646EA06464FEA164646EA0106BCBF3D
:1018E00046EA0646360C4FF000034FF000024FF078
:1018F000000194E72DE9804C9A46934670B491E834
:10190000380007C831EA400C48BF34EA430C03D51D
:10191000FFF7A3FDFFF780FFF0BCBDE8008C2DE9C9
:10192000804C9A46934670B491E8380007C831EA73
:10193000400C48BF34EA430C03D5FFF78EFDFFF798
:1019400029FFF0BCBDE8008C2DE9804C9A469346F7
:1019500070B491E8380007C810F0804F08BF13F04A
:10196000804F03D100F01AF8FFF756FFF0BCBDE836
:10197000008C2DE9804C9A46934670B491E838006B
:1019800007C810F0804F08BF13F0804F03D100F05C
:1019900005F8FFF7FFFEF0BCBDE8008C20F07F47A4
:1019A00080EA030023F07F4C07EB0C03A3F57C5384
:1019B00000F00040A3F1FE0392F0000F00F0B380AE
:1019C00095F0000F00F077802DE901494FEA1140B2
:1019D0004FEA144621EA004800FB06FC24EA0647C9
:1019E00008FB06F607FB08F800FB07F718EB0648AC
:1019F0004CEB164C4FEA124B18EB07484FEA1546D2
:101A00004CEB174022EA0B4E0BFB06FC25EA06477F
:101A10000EFB06F607FB0EFE0BFB07F71EEB064E52
:101A20004CEB164C4FF000061EEB074E4CEB174BE1
:101A300018EB0B0840F1000018EB0E0B58EB0008F8
:101A400040F100008F1A4FF000013CBFC943661BF4
:101A500014BFB5EB040C00213CBFC943F61B4FEA91
:101A600017444EEA8E0E27EA04454FEA1C4704FB52
:101A700007622CEA074C05FB07F70CFB05F604FB95
:101A80000CFC16EB074642EB174216EB0C4642EBFA
:101A90001C421BEB060658EB0202414146EA9E0639
:101AA00001D5BDE80189B619524141EB0101A3F10D
:101AB0000103BDE801894FEA14454FEA114724EAC2
:101AC000054621EA074C05FB07F406FB07F70CFB6C
:101AD00006F105FB0CFC11EB074144EB17444FEA00
:101AE000124711EB0C4144EB1C4422EA074C05FB66
:101AF00007F206FB07F70CFB06F605FB0CFC16EBE2
:101B0000074642EB174216EB0C4642EB1C456A189F
:101B100054F1000148BF7047B619524141EB010131
:101B2000A3F10103704795F0000F37D04FEA11423F
:101B30004FEA144721EA024624EA074C02FB07F168
:101B400006FB07F70CFB06F402FB0CFC14EB074446
:101B500041EB17414FEA154714EB0C4441EB1C4194
:101B600025EA074C02FB07F506FB07F70CFB06F618
:101B700002FB0CFC16EB074645EB174516EB0C4633
:101B800045EB1C42121951F1000148BF7047B619CC
:101B9000524141EB0101A3F1010370474FEA1445A3
:101BA0004FEA114724EA054621EA074C05FB07F1F5
:101BB00006FB07F70CFB06F24FF0000605FB0CFCDA
:101BC00012EB074241EB174112EB0C4251EB1C4167
:101BD00048BF7047921841EB0101A3F10103704720
:101BE000FEE70020704700207047000010B500227B
:101BF0000449054802F02AFE0449034802F020FE89
:101C0000002010BD640B0020A0020020640700200B
:101C100030B50C460546014685B0144802F010FE6A
:101C2000124802F0F1FD40211148FEF700FC227835
:101C300029460F48FEF784FB0D4C0E490DF1040CAC
:101C4000607808700F480C4B0C4A0D498CE80F0067
:101C50000D4800900D4B0E4A0EA12046FEF7E2FA09
:101C6000207801F0FDFD05B0002030BDA00200206D
:101C70006002002002000020180000201400002054
:101C80001000002024000020200000201C00002064
:101C90004800002025632025662025662025662033
:101CA0002566202566202566000000002DE9F04FFE
:101CB00093B090460D4605F027FA8246894628469D
:101CC00005F022FA06460F46404604F0BAFE594A8D
:101CD0003B46C2E9100132461046194604F004FFA3
:101CE00004460D4652464B461046194604F0FCFE8B
:101CF00022462B4604F026FC00224F4B05F01AF931
:101D000000224E4B05F016F900224D4B04F0D6FC94
:101D10000D46044602460B4604F0E6FE0022494BFF
:101D200005F016F821F0004104F088FB83460B9182
:101D300032463B460020444904F0D6FECDE904017A
:101D40005A460B9B04F0D0FE0691129052464B4629
:101D500000203D4904F0C8FE804622462B460391F0
:101D600004F0C2FE0791109052464B4600203749BE
:101D700004F0BAFE079B109A04F0E4FB069B129A4B
:101D800004F0E0FB81468A4640465A460B9B039985
:101D900004F0AAFECDE90201DDE9040122462B464A
:101DA00004F0A2FE8046059132463B4600202749BA
:101DB00004F09AFE4246059B04F0C4FBDDE90223D1
:101DC00005F0B8F84A46534604F078FC04F0A6F84B
:101DD000184A2B46C2E90C01224658460B9904F0DA
:101DE0006DFC04F09BF8134AC2E90E010022134671
:101DF0002046294604F03CFE08D20E4C144A154BEE
:101E0000D4E90E0104F09EFBC4E90E010022134642
:101E10004846514604F02CFE08D2064C0C4A0D4BA5
:101E2000D4E90C0104F08EFBC4E90C0113B0BDE849
:101E3000F08F00000000002000E9FA4020B6E040EA
:101E400080FDFD400000F03F0020674000C074406E
:101E500044174154FB210940704772B6FEE7000069
:101E60002DE9F84FDFF8B8910024A9F1040B2346BF
:101E70000F2709F1040AABF1040EC9E00125A540C2
:101E80002A40AA427DD1674ED1F804C0ACEB0608C7
:101E9000B44532D014DCBCF1030F3AD009DCBCF1FC
:101EA000000F2AD0BCF1010F1CD0BCF1020F31D1C0
:101EB0001DE0BCF1110F17D0BCF1120F2AD119E0AF
:101EC000B8F5881F19D006DCB8F5803F15D0B8F5F5
:101ED000801F1FD111E0B8F5001F0ED0B8F5041F08
:101EE00018D10AE0CB6815E0CB681B1D12E0CB6867
:101EF00008330FE0CB680C330CE08B682BB1012B5F
:101F00004FF0080303D0456104E0042302E00561BB
:101F100000E00023FF2A01D8064601E000F1040694
:101F20004FEA840501D9A5F12005D6F8008007FA0B
:101F300005FC28EA0C0803FA05F548EA0508C6F886
:101F400000804D68ED0062D5374DAE6946F0010660
:101F5000AE61AD6924F0030605F001050095334D2F
:101F600006EB050CDCF80850A607360F07FA06F852
:101F700025EA0805DFF8B880404503D14FF0000896
:101F800017E044E0DFF8AC80404502D14FF0010893
:101F90000FE0DFF8A480404502D14FF0020808E0CE
:101FA000DFF89880404502D14FF0030801E04FF080
:101FB000040808FA06F848EA0508CCF808804D68D5
:101FC000D9F80060ED024D4601D5164300E0964376
:101FD0002E604D68DAF80060AD02554601D5164313
:101FE00000E096432E604D68DBF80060AD035D466F
:101FF00001D5164300E096432E604D68DEF8006080
:10200000ED03754601D5164300E096432E60641C2F
:102010000D682A46E5407FF431AFBDE8F88F000037
:1020200008040140000011100010024000000140AF
:1020300000080140000C0140001001400014014064
:102040000AB1016170470904FBE70000014880689C
:10205000704700004C00002002488168027811445B
:10206000816070474C000020074810B5016841F0BE
:1020700010010160032000F075F80F2000F006F851
:1020800000F024F8002010BD0020024070B50D4D76
:1020900004464FF47A712878B1FBF0F00A490968D8
:1020A000B1FBF0F001F000F848B9102C07D2002283
:1020B0002146501E00F036F800206C6070BD0120F3
:1020C00070BD00004C000020580000200C4808B5EE
:1020D000816941F001018161816901F00101009193
:1020E000C16941F08051C161C06900F08050009029
:1020F0000448416821F0E06141F00071416008BD91
:102100000010024000000140002809DB00F01F021F
:10211000012191404009800000F1E020C0F8001149
:1021200070470000F0B40E4B1B680C46C3F302234B
:10213000C3F10705042D00D90425191D072901D273
:10214000002300E0DB1E012606FA05F1491E2140AE
:1021500099409E40761E16403143F0BC03F0EFBD1F
:102160000CED00E0064900F0070208684FF6FF0397
:10217000184040EA0220034A1043086070470000FC
:102180000CED00E00000FA05BFF34F8F0548016831
:10219000054A01F4E06111430160BFF34F8F00BFB6
:1021A000FDE700000CED00E00400FA0510B50C0698
:1021B00007D501F0070101EB810100EBC1002830D8
:1021C00005E001EB810100EBC10000F5B47099B2AC
:1021D00032B1012202730181190C4181002010BD2E
:1021E00000220273C180F9E7704701EB810200EB26
:1021F000C202D0F8EC02D26B02F019BD01EB8102F1
:1022000000EBC202D0F8EC02D2F87C2102F072BDE1
:1022100070B504460B0601F0070000EB800104EBEB
:10222000C1014FF001024FF0000503D581F82920CC
:10223000283103E081F8695101F5B471087094F810
:10224000A802012808D084F8A822206803F0B4F975
:1022500084F8A852002070BD022070BD70B50446FD
:1022600001F00F006268904201D9012070BD0B0699
:1022700001F0070000EB800104EBC1014FF0010207
:102280004FF0000503D581F82920283103E081F8BB
:10229000695101F5B4718D70087094F8A802012895
:1022A00008D084F8A822206803F023FA84F8A85202
:1022B000002070BD022070BD2DE9F05F04685FEA68
:1022C000424C0B788D69B4F850C04FF000064BF6C5
:1022D0008F7948F2800A48F68F7B48F2C00E4FF49F
:1022E00080672AD54FF0020808EBC308C44407EB07
:1022F0004C07E45BC4F30904A54203D32D1B8D6195
:1023000001D00BE08E61066836F8235005EA090516
:1023100085F4005545EA0A0526F82350520609D5EA
:102320000D78036833F8252002EA0B0242EA0E0218
:1023300023F8252084B30A8929E04FF0060808EB2A
:10234000C308C44407EB4C07E45BC4F30904A5428B
:1023500003D32D1B8D6101D00BE08E61066836F82A
:10236000235005EA090585F4005545EA0A0526F8D3
:102370002350520609D40B78056835F8232002EA69
:102380000B0242EA0E0225F823202CB14A89496942
:102390000068234603F086FC2046BDE8F09F2DE947
:1023A000F05F054600680C465FEA426C16468B6992
:1023B0002278B0F850C048F68F774CF280094FF47D
:1023C000004B4FF6FF7E4FF4806A4FF0000172D54C
:1023D0004FF0020808EBC208E0440AEB480C30F862
:1023E0000C00C0F30900834211D91B1AA3610FD05E
:1023F000730407D52E6836F822303B4043EA0903C0
:1024000026F8223094F82420012A47D052E1A16115
:10241000607810B1012813D01AE02868B0F8503065
:10242000184400EB0210B0F80424C2F30902A0F82B
:102430000424B0F8042442F40042A0F8042407E085
:102440002868B0F85030184400EB0210A0F80414CB
:102450006278286812B1012A11D018E0B0F8501043
:102460000844217800EB0110B0F80C14C1F3090105
:10247000A0F80C14B0F80C1441F4004105E0B0F8D9
:1024800050201044227800EB0210A0F80C142178A0
:102490002846FFF7AAFE700472D40BE16269024479
:1024A0006261E2690244E2612369226A9A4203D3CB
:1024B0001846111A04E03EE084F824100AB11046D0
:1024C0002162617811B1012929D031E02968B1F880
:1024D00050201144227801EB0211B1F80424C2F318
:1024E0000902A1F8042401F204413E2807D9420957
:1024F000C30600D1521E0B884BEA822207E048B186
:102500004208C30700D0521C0B880EEA82221343F4
:102510000B800DE00A8842F400420A8008E0296836
:10252000B1F850201144227801EB0211A1F8040403
:1025300083B22289BAE04FF0060808EBC208E044F3
:102540000AEB480C30F80C00C0F30900834211D3A9
:102550001B1AA3610FD0730407D42E6836F82230FB
:102560003B4043EA090326F8223094F82420012A4C
:1025700051D09FE0A161607818B1012814D01BE010
:102580003FE02868B0F85030184400EB0210B0F873
:102590000424C2F30902A0F80424B0F8042442F48D
:1025A0000042A0F8042407E02868B0F8503018442E
:1025B00000EB0210A0F804146278286812B1012A16
:1025C00011D018E0B0F850100844217800EB011049
:1025D000B0F80C14C1F30901A0F80C14B0F80C14F5
:1025E00041F4004105E0B0F850201044227800EB9F
:1025F0000210A0F80C1421782846FFF7F6FD7004AD
:1026000058D42278296831F82200384040EA09007D
:1026100021F822004EE0626902446261E2690244EC
:10262000E2612369226A9A4203D31846111A216291
:1026300004E00AB11046216284F824106278296807
:1026400012B1012A28D02FE0B1F85020114422788D
:1026500001EB0211B1F80C24C2F30902A1F80C2419
:1026600001F20C413E2807D94209C30600D1521E8F
:102670000B884BEA822207E048B14208C30700D02A
:10268000521C0B880EEA822213430B800CE00A884E
:1026900042F400420A8007E0B1F850201144227849
:1026A00001EB0211A1F80C04628983B26169286808
:1026B00003F016FB2278296831F8220048F6BF7330
:1026C000184080F0300048F28003184321F82200BF
:1026D0000020BDE8F09F01F0070101EB810100EB54
:1026E000C100D0F8840170472DE9F04104460F067F
:1026F00001F0070000EB800104EBC1014FF001067F
:102700004FF0000503D581F82960283103E081F8F6
:10271000695101F5B471022B08700A61CB7000D1C8
:102720000D7194F8A802012809D084F8A8622068E5
:1027300002F0F2FD284684F8A852BDE8F08102209C
:10274000FBE710B501F0070404EB840100EBC101C5
:10275000C1E95F230022C1F8842181F8692181F851
:102760006841006801F5B47103F018F8002010BD4D
:1027700070B504460D4601F007006168884201D932
:10278000012070BD29064FF000064FF0010207D569
:1027900000EB800104EBC10181F82920283107E01A
:1027A00005EB850104EBC10181F8696101F5B471A4
:1027B0008A70087094F8A802012807D084F8A8222B
:1027C000206802F0D2FF680702D006E0022070BD48
:1027D00004F52C71206802F08AFF84F8A8620020BA
:1027E00070BD10B501F0070404EB840100EBC101DA
:1027F000C1E90F23012281F84C208B6400234B6434
:1028000081F8292001F8284F006802F0C7FF002056
:1028100010BD00001FB50446006803F03FFA010434
:1028200003D5204601F05BF81FBD41050DD520689A
:1028300030F8441F21F480610180204600F010F937
:102840000021204600F027F91FBD410405D520686E
:1028500030F8441F21F4804174E0810405D52068DC
:1028600030F8441F21F400516CE0C10414D52068F5
:1028700030F8401F21F004010180206830F8401F2B
:1028800021F008010180204600F0FDF8206830F8B2
:10289000441F21F4805155E0010540D5D4F80020B3
:1028A0000020694632F8203021F81030401CC0B2B8
:1028B0000828F7D332F8400F40F00100108020685C
:1028C00030F8402F22F0010202802068B0F8442046
:1028D0005205FBD530F8442F22F48062028000209C
:1028E000236831F8102023F82020401CC0B20828AB
:1028F000F6D3206830F8401F41F0080101802068BD
:1029000030F8441F21F400610180206830F8401F36
:1029100041F004010180204600F0F2F81FBD81055E
:1029200009D5206830F8441F21F400710180204649
:1029300000F0ADF81FBDC005FCD5206830F8441F7D
:1029400021F4807101801FBD2DE9F04186B00400A3
:1029500004D094F8A902002520B108E0012006B0B7
:10296000BDE8F08184F8A852204600F05BF803200F
:1029700084F8A902206802F0B3FE04F110011422C9
:1029800088466846FDF721FD94E80F0002F012FE2C
:102990000227D0BB0021206803F09AF9002001260D
:1029A0000EE000BF00EB800104EBC10181F829605B
:1029B00001F8280F401CCD700D614D61C0B28D61D2
:1029C00061688142EED8002012E000BF00EB800178
:1029D00004EBC10181F8695181F8680181F86B51FC
:1029E000C1F87851C1F87C51401CC0B2C1F8805187
:1029F00061688142EAD8142241466846FDF7E5FC49
:102A000094E80F0002F063FE10B184F8A972A5E704
:102A100084F8245084F8A962206802F056FE002051
:102A20009DE7000008B500680B49884212D10B48A9
:102A3000C16941F40001C161C069002200F40000D5
:102A4000009011461420FFF76DFBBDE808401420EC
:102A5000FFF75ABB08BD0000005C004000100240B8
:102A600070B5044680680125022801D0FFF7F5F90A
:102A70002946D4F8EC0202F026FAD4F8EC02BDE8BC
:102A8000704002F0E2B9D0F8EC0202F006BAD0F8D9
:102A9000EC0202F00CBA10B5044690F8A802012826
:102AA0000BD0012084F8A80284F82410206803F0D9
:102AB00011F9002084F8A80210BD022010BDD0F842
:102AC000EC2200F52C71104602F009BA10B504464C
:102AD00090F8A802012810D0012084F8A8022068EC
:102AE00003F0CDF801212046FFF77EFB206802F0BD
:102AF000EAFD002084F8A80210BD022010BD0000ED
:102B000010B50446D0F8EC0202F028FAA0690028BB
:102B100004D00348016841F00601016010BD0000C7
:102B200010ED00E02DE9F84305460078354CC0076C
:102B300054D0E0690026C00008D4E06940F080501D
:102B4000E061E069012600F0805000902E480168A5
:102B5000C90512D40168804641F480710160FFF715
:102B600075FA074605E000BFFFF770FAC01B64283E
:102B700023D8D8F80000C005F6D5206A10F44070BC
:102B800021D0A98801F4407181421CD0206A1F49DC
:102B9000012220F440700A6000220A602062C0070F
:102BA00011D0FFF753FA074641F2883808E000BF1A
:102BB000FFF74CFAC11B414502D90320BDE8F88359
:102BC000206A8007F4D5206A696820F440700843C1
:102BD00020621EB1E06920F08050E0612878800713
:102BE00005D56068A96820F44040084360602878F3
:102BF000C00605D56068E96820F48000084360607D
:102C00000020DBE700100240007000404004424218
:102C10002DE9F0470F46050061D0434E306800F0C3
:102C20000700B84209D2306820F00700384330600E
:102C3000306800F00700B84251D128683B4C81074A
:102C400012D5400703D5606840F4E06060602878E2
:102C5000000703D5606840F4605060606068A96850
:102C600020F0F000084360602878C00728D068682A
:102C7000012810D02168022810D0890700292EDAF7
:102C8000616821F0030101436160FFF7DFF98046CD
:102C900041F288390DE021688903EFE78901EDE70A
:102CA000FFF7D4F9A0EB0801494502D90320BDE89C
:102CB000F0876068696800F00C00B0EB810FEFD11D
:102CC000306800F00700B8420BD9306820F00700E8
:102CD00038433060306800F00700B84201D001206E
:102CE000E5E72878400705D56068E96820F4E060EA
:102CF000084360602878000706D56068296920F4D9
:102D0000605040EAC100606000F018F86168084A4D
:102D1000C1F30311515CC8400649086006480068C9
:102D2000FFF7B4F90020C2E7002002400010024083
:102D30000C75000858000020500000200E4A516811
:102D40000E4801F00C03042B11D0082B0FD10C48B6
:102D5000C1F38343C903C05C0AD55168084AC1F373
:102D60004041921E515C054A5043B0FBF1F0704760
:102D700004494843704700000010024000127A00E6
:102D8000FC74000800093D002DE9F84F040070D0E4
:102D90002078C04DC00749D06868C0F38100012881
:102DA00007D06868C0F38100022809D16868C003B1
:102DB00006D52868800339D560680028E7D035E05B
:102DC0006068B0F5803F0BD010B1B0F5A02F11D0E6
:102DD000286820F480302860286820F4802002E0F1
:102DE000286840F480302860606890B1FFF72EF9C1
:102DF00006460AE0286840F480202860F0E700BF1B
:102E0000FFF724F9801B642873D828688003F7D55E
:102E10000CE0FFF71BF9064605E000BFFFF716F9C7
:102E2000801B6428F0D828688003F7D420789A4E55
:102E300080074FF001094FF0000839D5686810F09D
:102E40000C0F07D06868C0F38100022809D16868B8
:102E5000C00306D42868800714D52069012808D14A
:102E600010E02069B0B1C6F80090FFF7EFF8074610
:102E700005E00AE1FFF7EAF8C01B0228C4D8286879
:102E80008007F7D52868616920F0F80040EAC100A2
:102E900028600DE0C6F80080FFF7D8F8074604E088
:102EA000FFF7D4F8C01B022823D828688007F7D47E
:102EB000207800072CD57948A169D9B1C0F80090D5
:102EC000FFF7C4F8074604E0FFF7C0F8C01B02286C
:102ED0000FD8686A8007F7D571484FF4FA51006837
:102EE000B0FBF1F0009000BF0098411E0091FAD2B3
:102EF0000EE080E0C0F80080FFF7A8F8074604E085
:102F0000FFF7A4F8C01B022875D8686A8007F7D4B9
:102F10002078400760D5E8690027C00008D4E86938
:102F200040F08050E861E869012700F0805000908F
:102F30005C480168C90513D40168834641F4807177
:102F40000160FFF783F8824606E000BFFFF77EF8D6
:102F5000A0EB0A0064284ED8DBF80000C005F5D5C8
:102F6000E06801280AD008B1052813D0286A20F0AB
:102F700001002862286A20F0040002E0286A40F07C
:102F800001002862E06841F2883B98B1FFF75EF8E3
:102F900082460BE0286A40F004002862EEE700BF9A
:102FA000FFF754F8A0EB0A0159455AD8286A800760
:102FB000F6D50CE0FFF74AF8824605E0FFF746F841
:102FC000A0EB0A0159454CD8286A8007F6D41FB1F6
:102FD000E86920F08050E861E06988B36968C1F36E
:102FE0008101022944D00228C6F8608004D0FFF78E
:102FF0002DF8044638E034E0FFF728F8074604E0EF
:10300000FFF724F8C01B02282BD828688001F7D4CA
:10301000206AB0F5803F05D16868A16820F40030CF
:1030200008436860D4E908010843696821F4741111
:1030300008436860C6F86090FFF708F8044606E0A9
:1030400025E000BFFFF702F8001B022809D8286816
:103050008001F7D51BE000BFFEF7F8FF001B022838
:1030600002D90320BDE8F88F28688001F4D40EE06F
:103070000128F7D06868226A00F48031914204D1B7
:10308000616A00F47010884201D00120EAE7002054
:10309000E8E7000000100240000042428004424283
:1030A000580000200070004010B5401EB0F1807F35
:1030B00001D3012010BD4FF0E02460610F216017A3
:1030C00002F03DFE0020A06107202061002010BD1D
:1030D00070B590F83C20012A26D0012480F83C40AD
:1030E000022280F83D2003685A689D6822F070062D
:1030F0000A6832435A600D4B02689A4208D0B2F116
:10310000804F05D00A4B9A4202D00A4B9A4204D112
:10311000496825F080031943916080F83D40002103
:1031200080F83C10084670BD022070BD002C0140A4
:10313000000400400008004010B5040003D094F8DB
:103140003D0010B107E0012010BD002084F83C00D4
:10315000204600F01FF8022084F83D00211D206861
:1031600001F066F9012084F8460084F83E0084F8F6
:103170003F0084F8400084F8410084F8420084F85D
:10318000430084F8440084F8450084F83D000020A2
:1031900010BD000008B50C4A01680C48914207D1E7
:1031A000816941F400618161806900F4006009E097
:1031B000B1F1804F07D1C16941F00101C161C0691E
:1031C00000F00100009008BD002C014000100240FA
:1031D00090F83D10012901D001207047022180F8AC
:1031E0003D1000680B49884208D0B0F1804F05D0EF
:1031F0000949884202D00949884204D1816801F016
:103200000701062903D0016841F001010160002097
:1032100070470000002C01400004004000080040FE
:1032200070B5044690F83C000025012817D001260F
:1032300084F83C60022084F83D002068826822F017
:10324000770222F47F4282600868502838D00DDC73
:1032500020284FD005DC90B3102811D14AE002207D
:1032600070BD302846D040280AD13BE060282FD0DE
:1032700070280DD0B0F5805F03D0B0F5005F12D09C
:10328000012584F83D60002084F83C00284670BD8C
:10329000CB68D1E90121206801F00DF9206881682F
:1032A00041F0770109E0CB68D1E90121206801F004
:1032B00002F92068816841F480418160E1E719E00A
:1032C000CA684968206801F0ABF95021206806E01F
:1032D000CA684968206801F0B4F96021206801F0EB
:1032E000F4F8CEE7CA684968206801F099F94021EE
:1032F0002068F4E7226801461046F0E700B585B083
:10330000002100910191029103910068B0F1804F7A
:1033100011D10A48816941F00401816180696946DF
:1033200000F004000490012000900220019003901E
:103330000348FEF795FD05B000BD000000100240F7
:103340000008014070B5044690F83C0000260D4688
:1033500001280FD0012084F83C006AB1042A1DD056
:10336000082A2FD00C2A3FD00126002084F83C00E8
:10337000304670BD022070BD206801F0AFF82068B3
:10338000816941F0080181612068816921F00401AF
:103390008161206881692A69114311E0206801F088
:1033A000C5F82068816941F4006181612068816904
:1033B00021F480618161206881692A6941EA0221E2
:1033C0008161D2E7206801F0DDF82068C16941F031
:1033D0000801C1612068C16921F00401C161206850
:1033E000C1692A69114311E0206801F0F7F82068EB
:1033F000C16941F40061C1612068C16921F4806143
:10340000C1612068C1692A6941EA0221C161ACE752
:1034100010B5040003D094F83D0010B107E001207E
:1034200010BD002084F83C00204600F01EF8022069
:1034300084F83D00211D206800F0FAFF012084F887
:10344000460084F83E0084F83F0084F8400084F889
:10345000410084F8420084F8430084F8440084F872
:10346000450084F83D00002010BD704710B50446AB
:10347000022249B104290ED0082913D094F8410042
:10348000012816D0012010BD94F83E000128F9D182
:1034900084F83E200FE094F83F000128F2D184F830
:1034A0003F2008E094F840000128EBD184F8402048
:1034B00001E084F841200122206800F0EFFF0F496D
:1034C0002068884203D1426C42F400424264206882
:1034D000884208D0B0F1804F05D00949884202D017
:1034E0000849884204D1816801F00701062903D008
:1034F000016841F001010160002010BD002C014075
:103500000004004000080040FEE700002DE9F047FD
:1035100006460325B0FBF5F01A4905FB1063087851
:103520004F78CC880622A3B1B6FBF5F1B4FBF5F3D6
:103530009146B4FBF9F205FB11615943891A08441D
:1035400003F050FE8046B6FBF5F0B4FBF5F1401CED
:103550000BE09146B4FBF9F1611A084403F042FE16
:103560008046B6FBF5F0B4FBF5F14843B4FBF9F146
:10357000401A384403F036FE01464046BDE8F047A5
:1035800000F0AEBB00000020F0B500230A24302577
:1035900037261F4611E000BFB4EB107F02D905EBC0
:1035A000107C01E006EB107C01F813C001EB430C2A
:1035B00000015B1C8CF80170DBB29342ECD3F0BDD0
:1035C0002DE9F04186B000242A4800940194029429
:1035D0000394816941F010018161816901F010015A
:1035E0000491816941F020018161816901F020012C
:1035F0000491816941F00401816180691E4F00F0EE
:1036000004004FF400550490002229463846FEF786
:1036100017FDDFF86880002240F27E214046FEF769
:103620000FFD0095022601250396CDE90154694658
:103630003846FEF715FC7E20CDE900050320CDE9D4
:10364000024069464046FEF70BFC6802CDE90005E2
:10365000CDE9024669464046FEF702FCA802CDE9E4
:103660000004694640460294FEF7FAFB06B0BDE846
:10367000F0810000001002400010014000080140ED
:1036800010B586B000241748009401940294039466
:1036900004941349059401604721C0E901144FF6D1
:1036A000FF71C0E9031444618461FFF745FD08B16F
:1036B00072B6FEE74FF48050009069460948FFF764
:1036C000AFFD08B172B6FEE7049404A9054805945D
:1036D000FFF7FEFC002801D072B6FEE706B010BD71
:1036E000002C0140D001002010B58EB000240794BA
:1036F000089409940A940B941C2168460C94FCF7D6
:10370000B8FE1E484FF0804101604721C0E9011416
:1037100040F2E731C0E903148461FFF70DFD08B101
:1037200072B6FEE74FF48050079007A91348FFF7E1
:1037300077FD08B172B6FEE71048FFF769FE08B1E1
:1037400072B6FEE70B940BA90C480C94FFF7C0FC73
:1037500008B172B6FEE76020CDE9000402940022B1
:10376000694606480494FFF7EDFD08B172B6FEE71E
:103770000248FFF7C3FD0EB010BD00001802002084
:1037800010B500220F49104801F02AFA08B1FEF7DF
:1037900064FB0E490C4801F007FC08B1FEF75DFB25
:1037A0000B49094801F044F808B1FEF756FB0648FA
:1037B00001F050FC002803D0BDE81040FEF74DBBDF
:1037C00010BD00005C000020A00200209801002035
:1037D000AC0000202DE9F0411F4D4FF416664FF468
:1037E00000544FF4207754282FD00BDC40F2C72729
:1037F00045281DD051280ED052282BD12023042239
:10380000012106E057280BD0592823D14023082254
:103810000021384608E010230222002130460BE048
:10382000102302220121304600F030FA002206E087
:103830002023042200210BE000F028FA0122214677
:103840002846BDE8F041FEF7FBBB402308220121DA
:103850003846F1E7BDE8F08100100140FEE70000C6
:10386000F8B51D4C4C2833D00DDC1B4941280D699F
:1038700024D049281CD1284603F094FCBDE8F84028
:10388000C0B2FFF743BE4D2813D0562810D1606A4E
:1038900003F06CFC46B2206A03F036FC07460D4686
:1038A000E06903F031FC3A462B46009600F006FD35
:1038B000F8BDA078BDE8F840FFF78CBFA06903F021
:1038C00055FC02B228466169BDE8F84000F07CBBB7
:1038D000BDE8F840FEF758BC00000020FEE72DE9E7
:1038E000F84F044640F68F7B48F60F794FF4806816
:1038F0004FF0000AC0E1B0F8441011F00F0539D0C4
:1039000030F8256031047ED530F8251001EA0B012E
:1039100041F0800120F8251005EB850004EBC0077D
:1039200097F8740107F5B47700286DD0F87802286D
:103930006BD03978226832F8210048F68F7318402E
:1039400048F2C003184322F821003978206830F883
:103950002120B0F8503052047DD5022202EBC10183
:103960005A1808EB4201415A8905890D009173D01C
:103970003A89DFE0C9062DD4018801EA090141F442
:1039800000410180206804F12805B0F85030297802
:10399000022202EBC1015A1808EB4201405AC0F35F
:1039A00009006064E16B0844E06300212046FEF7F3
:1039B0001CFC94F8240000289CD0A869002899D108
:1039C00094F82400216840F08000A1F84C0084F8AD
:1039D00024A051E1018804F5B4750A0521D5B0F899
:1039E00050202B78062101EBC3010A4408EB420169
:1039F000405A04F52C71C0F30903EB61EA88206892
:103A000002F050F902E0B0E070E080E02068018848
:103A100001EA0B0141F0800101802046FFF74FF8D9
:103A20002AE10904D5D5018801EA0B0141F08001A2
:103A300001802068B0F850202B78062101EBC301EB
:103A40000A4408EB4201405A83059B0DEB6110D0FC
:103A5000696971B101E061E05FE0EA88206802F025
:103A600021F9E96968690844686100212046FEF788
:103A7000C5FB216808880205ABD4C0F301300328D8
:103A8000A7D0B1F850000844B0F80C14C1F30901F4
:103A9000A0F80C142A6900F20C403E2A09D95109F9
:103AA000D20600D1491E02884FF4004343EA812127
:103AB00009E0B2B15108D20700D0491C02884FF684
:103AC000FF7303EA81210A430280216808884BF6CC
:103AD0008F72104080F4405048F2800210430880FA
:103AE000CAE0018841F400410180EEE72068B0F8A7
:103AF00050203B78062101EBC3010A4408EB420148
:103B0000415A8905890D009118D0FA8812E0324691
:103B100039462046FEF7D0FB00900FE0062202EB6C
:103B2000C1015A1808EB4201415A8905890D0091DB
:103B300004D07A897969009B02F0B4F8F869009999
:103B40000844F8617969009808447861B86918B147
:103B500039690098814204D939782046FEF74EFB36
:103B600003E03946206801F019FE30062FD505EB39
:103B7000850004EBC001206830F8252002EA090224
:103B800042F4004220F8252091F82B00283101282A
:103B90001ED0F0056CD42068B0F850300D780222A9
:103BA00002EBC5021A4408EB4202805A8A69C0F34C
:103BB0000900824255D9121A8A6154D04A690244D6
:103BC0004A61CA691044C861206801F0E7FD53E00A
:103BD000C1F818A0087B524608B3700620D5487873
:103BE00010B1012812D03AE02068B0F850201044FB
:103BF0000A7800EB0210B0F80424C2F30902A0F81E
:103C00000424B0F8042442F4004206E02068B0F82E
:103C1000503018440B7800EB0310A0F804241EE089
:103C20004B78206813B1012B11D018E0B0F8502068
:103C300010440A7800EB0210B0F80C24C2F3090219
:103C4000A0F80C24B0F80C2442F4004205E0B0F8CF
:103C5000503018440B7800EB0310A0F80C240978BE
:103C600002E0C1F818A0E9B22046FEF7BEFA03E070
:103C700032462046FEF793FB2068B0F84410090452
:103C80003FF539AE0020BDE8F88F70472DE9F041CF
:103C9000124E1546074611B1012903D007E099B22B
:103CA000002201E099B201223046FEF7C9F9002452
:103CB00010E0A9B201223046FEF7C2F9962002F0C8
:103CC0002FFBA9B200223046FEF7BAF9962002F087
:103CD00027FB641CBC42ECDDBDE8F081000801401C
:103CE0002DE9F04F93B00E4600210691A74CA84D48
:103CF000119103F009FA07468A46304603F004FAA8
:103D0000064689460121204603F0B3FB294603F00D
:103D100081FA03F0F9F90446884632464B461046CC
:103D2000194602F0E1FE05468B463A4653461046D8
:103D3000194602F0D9FE2A465B4602F003FC002237
:103D4000944B03F0F7F80022934B03F0F3F822466C
:103D5000434602F0B3FC0D46044602460B4602F011
:103D6000C3FE00228D4B02F0F3FF21F0004102F070
:103D700065FB8346099132464B460020884902F094
:103D8000B3FE04905A460F91099B02F0ADFE0B91D1
:103D90000E903A4653460020814902F0A5FE804627
:103DA00022462B46039102F09FFE0D9110903A4659
:103DB000534600207B4902F097FE0D9B109A02F0BB
:103DC000C1FB0B9B0E9A02F0BDFB0E908A4640464B
:103DD0005A46099B039902F087FE0A9088462246BC
:103DE0002B460F99049802F07FFE07460391324656
:103DF0004B4600206B4902F077FE3A46039B02F0E7
:103E0000A1FB43460A9A03F095F853460E9A02F036
:103E100055FC02F083F88046894622462B465846D8
:103E2000099902F04BFC02F079F806460F46002291
:103E300013462046294602F01BFE07D25A4A5B4B26
:103E40003046394602F07EFB06460F4600221346F6
:103E500051460E9802F00CFE07D2534A534B40468F
:103E6000494602F06FFB80468946514C606A03F078
:103E70007DF902B2D4E90701FDF718FFD4E910017A
:103E80000022134602F0F4FD09D2D4E9100181F0BA
:103E9000004102F0A7FD00B2012101F034FFDFF87C
:103EA00010A140464946DAE90C2303F043F8DFF855
:103EB00004B10191044621F000415A463E4B02F004
:103EC00013FE3E4A3E4B02F0F9FB0591DAE90E2360
:103ED00005463046394603F02DF821F000415A4698
:103EE000354B02F001FE354A354B02F0E7FB8246C6
:103EF0008B46002220461346019902F0F3FE01D2C0
:103F0000012006902A483946D0E90E23304603F0B6
:103F100011F80022134602F0E5FE01D201201190B3
:103F20000022284B2846059902F0DEFD02F05AFDDA
:103F300002F087FD04460D4604225046594603F020
:103F40006AFA02F04FFD02F07CFD02F04BFD824662
:103F50002046294602F046FD119A0421CDE90012BF
:103F600053460221069A02F0E7F90021142001F0DD
:103F7000CAFE0121142001F0C6FE13B032463B46B2
:103F800040464946BDE8F04F02F0D8B80000A643CD
:103F90000000394300E9FA4020B6E0400000F03F5D
:103FA0000020674000C0744044174154FB21094081
:103FB000000000204446671ADCA54C40CDCCCCCC98
:103FC000CCCCBC3F00004B402DE9F04F0E4695B0E5
:103FD000014600200A9013909046A94CA94D08462E
:103FE00003F092F881468A46304603F08DF8064683
:103FF0000F46404602F025FD8346109101212046E0
:1040000003F037FA294603F005F903F07DF88046FE
:1040100032463B4607911046194602F065FD0446BC
:104020000D464A4653461046194602F05DFD2246AB
:104030002B4602F087FA0022934B02F07BFF00220E
:10404000924B02F077FF4246079B02F037FB0D468A
:10405000044602460B4602F047FD00228C4B02F05C
:1040600077FE21F0004102F0E9F9CDE90E01324678
:104070003B460020874902F037FD0990DDE90E2319
:10408000079102F031FD039108904A465346002003
:10409000804902F029FD804622462B46119102F00C
:1040A00023FDCDE90C014A46534600207A4902F02F
:1040B0001BFDDDE90C2302F045FA039B089A02F090
:1040C00041FADDE90E23824602914046119902F041
:1040D0000BFD0391089022462B460799099802F0A0
:1040E00003FD8046894632463B4600206A4902F07D
:1040F000FBFC42464B4602F025FA039B089A02F06D
:1041000019FF5246029B02F0D9FA01F007FF8046E0
:104110008946DDE90E0122462B4602F0CFFA01F076
:10412000FDFE06460F46002213462046294602F0B1
:104130009FFC07D2594A5A4B3046394602F002FAE0
:1041400006460F46002213465046029902F090FCA4
:1041500007D2524A524B4046494602F0F3F9804694
:104160008946504D686A03F001F802B2D5E90701AB
:10417000FDF79CFDD5E90C234046494602F0DAFEE6
:10418000DFF824810191044621F000414246474B6B
:1041900002F0AAFC464A474B02F090FAD5E90E23FA
:1041A00081468A463046394602F0C4FE21F000417D
:1041B00042463E4B02F098FC3D4A3E4B02F07EFAEE
:1041C00005468846002220461346019902F08AFDE2
:1041D00001D201200A9033483946D0E90E233046F7
:1041E00002F0A8FE0022134602F07CFD01D201205D
:1041F00013900022304B4846514602F075FC02F005
:10420000F1FB02F01EFC04460E46042228464146FD
:1042100003F001F902F0E6FB02F013FC02F0E2FB0E
:1042200005462046314602F0DDFB139A0421CDE914
:1042300000122B4602210A9A02F07EF8194C5846C9
:10424000D4E91023109902F04DFD0AD8D4E91023C7
:104250005846109902F06EFE02F0C4FB00B2012134
:1042600009E0D4E910015A46109B02F063FE02F007
:10427000B9FB00B2002115B0BDE8F04F01F043BD1D
:104280000000A6430000394300E9FA4020B6E040B0
:104290000000F03F0020674000C0744044174154C4
:1042A000FB210940000000204446671ADCA54C4071
:1042B000CDCCCCCCCCCCBC3F00004B402DE9FE4F4C
:1042C00005460020DFF8D090DFF8D0A014461E4647
:1042D000884607460290284621F000414A46534648
:1042E00002F002FC2E4A2F4B02F0E8F98B460090B8
:1042F000204626F000414A46534602F0F5FB284A84
:10430000284B02F0DBF981468A46002213462846F4
:10431000414602F0ADFB01D201200290002213467B
:104320002046314602F0A4FB00D2012700221E4B9A
:104330005946009802F0D8FB02F054FB02F081FBD2
:1043400004460D4604224846514603F064F802F044
:1043500049FB02F076FB02F045FB06462046294663
:1043600002F040FB0421CDE9001733460221029AF6
:1043700001F0E2FF0D480021C0E90C11C0E90E1167
:104380000C98002802DA0121404200E0002103B02D
:10439000BDE8F04F01F0B7BC4446671ADCA54C40BD
:1043A000CDCCCCCCCCCCBC3F00004B40000000209E
:1043B0007047FDF751BE30B593B028216846FCF731
:1043C00058F814210AA8FCF754F8002401200F948F
:1043D00010941194010412948DE8130004904FF48A
:1043E000E010CDE90810022507956846FEF7CCFCE1
:1043F00008B172B6FEE70F20CDE90A054FF48060E0
:10440000CDE90C4002210AA80E94FEF701FC08B188
:1044100072B6FEE710200F9012940FA8FEF782FBF1
:10442000002801D072B6FEE713B030BD704700001F
:10443000F0B50268164B174C174D4FF08047984265
:1044400005D0B84203D0A04201D0A84203D122F047
:1044500070064A683243984205D0B84203D0A04261
:1044600001D0A84203D122F44074CA6822434C69A7
:1044700022F08002224302608A68C2620A68826275
:10448000984201D10969016301214161F0BD000039
:10449000002C0140000400400008004010B501F06D
:1044A0001F030121046A99408C430462016A9A4007
:1044B0001143016210BD10B5846842EA032224F45E
:1044C0007F440A432243826010BD826822F070025A
:1044D0000A4342F0070181607047000030B5036A6B
:1044E000026A22F0010202624268846924F07305C4
:1044F0000C682C4323F002058B682B430A4DA8421D
:104500000BD123F00805CB6822F440722B434D6990
:1045100023F0040315438A692A4342608461496891
:104520004163036230BD0000002C014030B5026AD7
:10453000036A23F010030362436884690D6824F45E
:10454000E64444EA05248D6822F0200242EA05127E
:104550000B4DA8420ED1CD6822F0800242EA05122E
:104560004D6923F4406343EA85038D6922F04002DC
:1045700043EA85034360846149688163026230BD18
:10458000002C014030B5036A026A22F48072026294
:104590004268C46923F4007324F073050C682C434B
:1045A0008D6843EA05230C4DA8420ED1CD6823F453
:1045B000006343EA05234D6922F4405242EA0512A2
:1045C0008D6923F4806342EA05124260C461496840
:1045D000C163036230BD0000002C014030B5046AA5
:1045E000026A22F4805202624268C3690D6823F4B1
:1045F000E64343EA05238D6824F4005444EA053475
:10460000064DA84204D14D6922F4804242EA851247
:104610004260C36149680164046230BD002C0140FE
:1046200010B5036A046A24F001040462846924F06A
:10463000F00444EA021423F00A020A43846102628D
:1046400010BD10B5036A046A24F010040462846982
:1046500023F0A00324F4704444EA023243EA011137
:104660008261016210BD2DE9F041D0F8C032D0F86E
:10467000B822CAB101EB810500EB85040026E76989
:104680003FB103EBC5039B6BB7FBF3F503FB15735E
:1046900023B1C2F814620020BDE8F08100231A465D
:1046A000E66100F064FCF6E70220F5E770B5054628
:1046B000D0F8B84200F05FFBC4F80C02D5F8B8029D
:1046C00048B1D5F8BC12D4F80402CA6804F50371E5
:1046D0009047002070BD022070BD70B504460026D2
:1046E000812100F09BFA002501212046E56200F0BF
:1046F00095FA82212046C4F86C5100F08FFA2564A7
:10470000D4F8B80248B1D4F8BC0204F52E7440685D
:104710008047206800F0FBFD2560304670BD10B575
:10472000D0E9AE4159B194F80002FF2807D08B6858
:1047300094F8012221469847FF2084F800020020C7
:1047400010BD00000A21018000487047C000002011
:10475000432101800048704710010020432101805F
:1047600000487047CC00002043210180004870477A
:10477000540100202DE9F04104460026007C4FF44E
:104780000077012590B3402302228121204600F0CA
:1047900047FB4023E56202220121204600F040FB56
:1047A0000823032282212046C4F86C5100F038FB14
:1047B0004FF40770256400F0ABFDC4F8B802F8B1FF
:1047C0000546D4F8BC02006880470020C5F81402F2
:1047D000C5F81802207CD5F8042298B140230121A5
:1047E000204600F029FB3046BDE8F081FFE73B465C
:1047F00002228121204600F013FB3B46E562CAE716
:104800000126F0E73B46EAE710B5D0F8B81269B1E7
:10481000027C002AD1F8042205D04023012100F0B7
:104820000BFB002010BD4FF40073F7E7022010BD12
:1048300002460220002902D00020C2F8BC127047B4
:10484000D0F8B802C0F8041200207047D0F8B802BF
:10485000C0F81022C0F80812002070472DE9FC4172
:104860000546D0F8B87200208DF80000ADF80400BD
:10487000064608780C4610F0600121D020293BD173
:10488000E288AAB10006607807D5D5F8BC128B681B
:1048900039469847E288394626E087F80002A07931
:1048A00087F80102E2883946284600F04FF828E0F0
:1048B000D5F8BC12607800228B682146984720E02A
:1048C000607820B10A2809D00B2815D110E095F89E
:1048D0009C02032810D1022201A905E095F89C0250
:1048E000032809D101226946284600F049F808E06A
:1048F00095F89C02032804D02146284600F01BF8B6
:1049000002263046BDE8FC8110B5D0F8B4225268CA
:104910009047002010BD134610B50A46002100F054
:104920008BFA002010BD134610B50A46002100F096
:104930001EFB002010BD10B50446802100F0FCFADB
:104940002046BDE81040002100F0F6BA10B5032360
:10495000C0F85C21C0F89432C0F8602113460A46C2
:10496000002100F069FA002010BD10B505210023D8
:10497000C0F894121A46194600F05EFA002010BDE5
:1049800010B50223C261C0F89432026213460A468F
:10499000002100F0ECFA002010BD10B50421002326
:1049A000C0F894121A46194600F0E1FA002010BD32
:1049B00010B50A46024903A000F0E2F8004810BD15
:1049C0006405002043444320436F6E66696700001E
:1049D00012200880004870477C00002010B50A466D
:1049E000024903A000F0CCF8004810BD6405002087
:1049F00043444320496E746572666163650000003C
:104A000004200880004870477800002010B50A464E
:104A1000024903A000F0B4F8004810BD640500206E
:104A200053544D6963726F656C656374726F6E6920
:104A30006373000010B50A46024903A000F0A0F815
:104A4000004810BD6405002053544D333220566990
:104A5000727475616C20436F6D506F72740000004A
:104A600010B51A2008800A480168001D0468001D5E
:104A70000068081809D008220649FEF785FD054997
:104A8000042210312046FEF77FFD0248801E10BD33
:104A9000E8F7FF1F92000020F8B504460020ADF8AB
:104AA000000048880D46010A082948D2DFE801F0D5
:104AB0004704091747473C45D4F8B012207C0A68E0
:104AC00019E0207C02260028D4F8B40205D0C16A7F
:104AD00068468847014646703EE0816AF8E7C0B202
:104AE00006282CD2DFE800F0030A1014181CD4F8B2
:104AF000B002426805E0694690471CE0D4F8B00275
:104B00008268E2B1207CF6E7D4F8B002C268F8E728
:104B1000D4F8B0020269F4E7D4F8B0024269F0E7D1
:104B2000D4F8B0028269ECE7207C40B9D4F8B40232
:104B3000416B6846884701460EE0207C20B129463B
:104B40002046FFF7F8FEF8BDD4F8B402016B6846C2
:104B50008847014607204870BDF8000048B1EA8840
:104B600052B1824200D90246ADF800202046FFF73C
:104B700007FFE8880028E6D12046FFF70EFFF8BDC2
:104B800070B5002300281ED00446002502E06D1CED
:104B9000EDB2641C2678002EF9D1022404EB450402
:104BA00014801278CA545B1C0322CA5400245B1C74
:104BB00006E0CA545B1CDAB28C54521CD3B2401CBF
:104BC0000278002AF5D170BD01004FF0000004D03A
:104BD000012901D0022901D002207047012070472D
:104BE00010B580B1D0F8B43213B10023C0F8B4329C
:104BF00009B1C0F8B012012180F89C12027000F0D7
:104C0000BFF8002010BD022010BD10B5D0F8C002C2
:104C1000FDF724FBBDE81040FFF7D6BF10B5D0F874
:104C2000C002FDF7F5FABDE81040FFF7CDBF2DE952
:104C3000F0411746044651B1D4F8B40242691AB1A2
:104C400094F89C02032851D00220BDE8F081D4F8EA
:104C50009432002504F11400022B03D0042B3AD027
:104C6000C3B33CE0D0E903639E4207D9F11AC160A7
:104C70008AB239462046FFF756FE12E08068B0FB44
:104C8000F3F103FB110199B9984211D3D4F89812AA
:104C900088420DD2002211462046FFF744FEC4F898
:104CA000985200231A461946204600F0C5F816E02F
:104CB000D4F8B402C16829B194F89C02032801D148
:104CC000204688478021204600F036F92046FFF72D
:104CD0004CFE04E0FFE78021204600F02DF994F817
:104CE000A002012804D184F8A05201E02046904798
:104CF0000020AAE770B51546044649B1D4F8B402BD
:104D000082691AB194F89C02032830D0022070BD49
:104D1000D4F8941204F5AA70032902D005291ED0F4
:104D200027E0D0E903218A420BD9531AC360084611
:104D3000834200D303469AB229462046FFF7EBFD93
:104D400017E0D4F8B402016929B194F89C02032851
:104D500001D1204688472046FFF71FFE09E00020CA
:104D60000146C4F89402204600F0E6F801E020462F
:104D70009047002070BDD0F8C002FDF7ACBC000029
:104D800010B504461C481D49C0F8EC42C4F8C002E6
:104D90000160082141600221816000218161C161BF
:104DA0000162FDF7D1FD08B1FDF757F80022D4F8F4
:104DB000C0021823114604F53074FDF7F7F95823A3
:104DC000002280212068FDF7F1F9C0230022812113
:104DD0002068FDF7EBF94FF4887300220121206869
:104DE000FDF7E4F94FF48073002282212068FDF77B
:104DF000DDF9002010BD000084110020005C00409F
:104E00000A0601F07F01D0F8C00201EB810100EB3E
:104E1000C10002D590F82A00704790F86A017047E7
:104E200010B51C461346D0F8C0022246FDF75CFCC4
:104E3000BDE81040FFF7C8BE10B5D0F8C002FDF7BE
:104E400080FCBDE81040FFF7BFBE70B500220446ED
:104E500040231146FFF7E4FF40260125C4F86461B2
:104E60003346002280212046C4F85851FFF7D8FF6E
:104E70006662A56184F89C520020C4F894026060C8
:104E8000C4F8A402D4F8B80228B1D4F8B4020021BE
:104E9000426820469047002070BD90F89C1204297B
:104EA00003D190F89D1280F89C120020704710B535
:104EB00090F89C12032904D1D0F8B412C96901B149
:104EC0008847002010BD01740020704710B5D0F84D
:104ED000C002FDF7E0FDBDE81040FFF775BE70B5FC
:104EE000044600F52A70054600F04AF80120C4F88F
:104EF0009402B4F8AE02C4F8980294F8A80210F034
:104F00001F010AD001290DD0022910D000F0800124
:104F1000204600F011F8002070BD2946204600F020
:104F20009EF8F8E72946204600F0CAF9F3E729463B
:104F3000204600F01DF9EEE710B5D0F8C002FDF7ED
:104F400017FCBDE81040FFF73FBE10B5D0F8C00217
:104F5000FDF7BCFDBDE81040FFF736BE90F89C128F
:104F600080F89D12042180F89C120020704710B533
:104F7000D0F8C002FDF735FCBDE81040FFF724BEB5
:104F80000A7802704A7842708A78CB7802EB032262
:104F900042800A794B7902EB032282808A79C979AF
:104FA00002EB0121C18070470246002011B1C2F816
:104FB000B41270470220704710B5D0F8B422022412
:104FC0001AB11268904700B90024204610BD0000B5
:104FD00070B50E461E4D897804462970012931D8D6
:104FE00094F89C0202280BD003280FD031462046AB
:104FF000FFF7A1FC29782046BDE87040FFF784BC8C
:10500000D9B10320616084F89C0209E071B1606845
:10501000884212D0C1B22046FFF776FC2978616041
:105020002046FFF7C9FF02280CD006E0022084F8D2
:105030009C0220466160FFF767FC2046BDE8704097
:10504000FFF7ABBC31462046BDE87040FFF773BCAC
:10505000BC00002010B5FFF778FF002010BD2DE93F
:10506000F0410A78002612F0600208D0202A01D010
:10507000402A70D1D0F8B422926890476DE04B7806
:10508000002201250A2B66D2DFE803F0405D655758
:10509000650805652C29FFF7FFFC5EE0044688885B
:1050A000D8B9C888C8B94888802816D200F07F07C8
:1050B00094F89C02032810D084F89E72394620464A
:1050C000FFF704FF2046FFF768FC1FB1022084F8B9
:1050D0009C0242E084F89C523FE020463BE0FFF710
:1050E00077FF3AE0CB88012B35D190F89C32012B29
:1050F00004D0022B02D0032B2DD104E082600122C8
:1051000000F1080116E00122011D13E090F89C2235
:10511000012A03D0022A01D0032A1CD1CA88022AFC
:1051200019D1C560D0F8A41209B10321C1600222CF
:1051300000F10C01FFF724FC0FE0498801290CD194
:10514000C0F8A45211E090F89C32012B08D0022B39
:1051500006D0032B04D0FFF7EEFB3046BDE8F0810C
:1051600049880129F9D1C0F8A422FFF716FCF4E719
:105170002DE9F0410A46044610780027097910F01D
:1051800060030AD0202B01D0402B50D1D4F8B402B8
:1051900011468368204698478FE0C0F341100128EC
:1051A00006D05078D0B301282AD003283FD107E099
:1051B000D4F8B402114683682046BDE8F041184790
:1051C00094F89C02022802D0032872D10AE071B33D
:1051D00080296ED02046FFF7AFFE80212046FFF7E2
:1051E000ABFE6AE0508838B931B1802904D0D0884C
:1051F00010B92046FFF7A0FE2046FFF7CEFB5CE08B
:1052000094F89C020228E2D0032852D1508898BB1F
:105210004806F1D02046FFF7F8FCEDE7FFE794F8E9
:105220009C020026022803D0032842D112E040E06D
:1052300009B180293DD1080601F07F0000EB800014
:1052400004EB800101D5143101E001F5AA710222BD
:105250000E602AE0080601F00F0000EB800004EB6E
:1052600080000AD5806920B301F07F0000EB800048
:1052700004EB800514350BE01FE0D0F85801C0B1F5
:1052800001F07F0000EB800004EB800505F5AA75B6
:1052900041B1802906D02046FFF7B2FD10B10120B0
:1052A000286000E02E60022229462046FFF768FBB6
:1052B00003E011462046FFF73EFB3846BDE8F0818B
:1052C00070B5054608780C4610F0600003D0202821
:1052D00001D0402816D195F89C02012803D002285D
:1052E00001D003280ED1207901280BD8D5F8B402BB
:1052F000826828469047E188014306D12846FFF797
:105300004CFB02E02846FFF716FB002070BD7047FB
:1053100000487047640F00202DE9F0470C78002604
:1053200030F8243048F68F121340CA78002A78D01B
:10533000012A7CD0022A02D0032A75D0012648F225
:105340008002134320F824300D7830F8253048F6D9
:105350008F7423402B43134320F825300D7B48F2F4
:10536000C00948F6BF734CF2800A4BF68F77EDB355
:10537000CD7891F800C0022D30F82C507DD048F641
:105380008F6805EA0805154320F82C50B0F85050F6
:1053900091F800C0054405EB0C15B1F808C02CF0DD
:1053A000010CA5F800C4B0F8505091F800C00544B5
:1053B00005EB0C15B1F80AC02CF0010CA5F808C4D7
:1053C0004D78002D7ED00D7830F825C05FEA4C4C2A
:1053D00007D530F825C00CEA040C4CEA0A0C20F87A
:1053E00025C091F800C030F82C5000E022E06D0696
:1053F00006D530F82C50254045EA090520F82C50F8
:10540000CC780D78012C30F8254004EA03047CD0D8
:1054100084F02003134320F82530C1E001E006E0CA
:1054200002E043F400738AE743F4C06387E743F480
:10543000806384E74D784DB3B0F850500F78054441
:1054400005EB0715CF8827F00107A5F800740F7842
:1054500030F827506D0606D530F82750254045EA2C
:10546000090520F82750CC78012C07D00C7830F8AB
:105470002410194081F0200104E064E00C7830F839
:1054800024101940114320F8241090E0B0F8503057
:105490000D78034403EB0513CD8825F00105A3F82F
:1054A0000854B0F850300D78034403EB0513B3F8FB
:1054B0000C54C5F30905A3F80C540D6903F20C4311
:1054C0003E2D00E045E00BD94FEA551CED0601D119
:1054D000ACF1010C1D884FF4004848EA8C2C0BE01D
:1054E00035B34FEA550CED0701D00CF1010C1D88C6
:1054F0004FF6FF7808EA8C2C45EA0C051D800D78E4
:1055000030F825305B0408D500E046E030F825305F
:10551000234043EA0A0320F82530097861B130F8C6
:1055200021303B4083F40053134320F821303EE008
:105530001D8845F40045E1E70188394081F4405178
:105540001143018033E0254048F2801845EA080500
:105550001AE791F800C030F82C506D0406D530F8E9
:105560002C50254045EA0A0520F82C5091F800C03F
:1055700030F82C506D0606D530F82C50254045EA01
:10558000090520F82C500D7830F825403C4084F473
:105590004054144320F8254070E7144320F8254078
:1055A0000B7830F823103940114320F8231030468F
:1055B000BDE8F087002070472DE9F04391F80C809A
:1055C0004F780A7848F6BF7C4BF68F7948F2800313
:1055D00048F2C0054CF2800648F68F74B8F1000F0F
:1055E00028D0002F30F822704FEA474748D0002FCC
:1055F00005DA30F822702740374320F822700A7805
:1056000030F822707F0605D530F8227027402F43EE
:1056100020F822700D7830F825202240324320F8FF
:1056200025200C7830F8242002EA0C021A4320F8D6
:1056300024201AE07FB130F82260760605D530F8D4
:10564000226026402E4320F822600A7830F822108B
:1056500001EA0C010EE030F822506D0405D530F857
:1056600022502540354320F822500A7830F8221085
:1056700001EA0901194320F822100020BDE8F08357
:10568000002F05DA30F822702740374320F82270C7
:105690000A7830F82260760605D530F82260264078
:1056A0002E4320F822600E7830F8262022402A432C
:1056B00020F826200C7830F8242002EA09021A4348
:1056C00020F82420C1E70020704700207047012106
:1056D00020F8401F00210180818001820846704728
:1056E00030F8401F21F43F41018000207047002026
:1056F000704730B50A7BB2BB4A7848F68F7548F2DE
:105700008004C2B10B7830F82320520607D530F858
:1057100023202A4048F2C0052A4320F82320CA78D3
:10572000012A20D00A7830F8221048F6BF731940B9
:1057300081F0200114E00A7830F822305B0407D5AC
:1057400030F822302B404CF280052B4320F82230D9
:105750000A7830F822104BF68F73194081F44051CB
:10576000214320F82210002030BD10B54A78097876
:10577000002A48F2800330F8212005D048F6BF7493
:10578000224082F0100204E04BF68F74224082F433
:1057900080521A4320F82120002010BD2DE9F04747
:1057A0000D464B78097B04464FF0000948F68F728E
:1057B00048F2800A4FF400474FF6FF78012B09D0DA
:1057C00000296FD0E87802286DD001286CD0012024
:1057D000BDE8F087AE692869864200D9064691B1D6
:1057E000E97802291ED0286A801B2862287834F8BC
:1057F00020104906B4F85010214401EB001073D575
:10580000A0F80C6416E1B3B2EA882046696900F09A
:1058100067FAB4F850002978204400EB0110A0F892
:1058200004640DE1296A814277D9297834F821008E
:10583000104048F28012104324F82100286A801B8F
:105840002862287834F820104906697871D511B19A
:1058500001292AD030E0B4F85010214401EB0010A7
:10586000B0F80C14C1F30901A0F80C1400F20C40BC
:105870003E2E07D97109F20600D1491E028847EA77
:10588000812107E04EB17108F20700D0491C02885F
:1058900008EA81210A4302800EE0018841F40041B8
:1058A000018009E0F1E020E195E1B4F85020111900
:1058B00001EB0010A0F80C646A89B3B22046696954
:1058C00000F00EFA6869304468612969286A8842E4
:1058D00002D9801B286202E00646C5F8209068784D
:1058E00018B101282BD032E02FE0B4F8500029780D
:1058F000204400EB0110B0F80414C1F30901A0F832
:10590000041400F204403E2E08D97109F20600D1B9
:10591000491E028847EA812108E0A1E056B17108DA
:10592000F20700D0491C028808EA81210A4302805C
:105930000DE00EE0018841F40041018007E0B4F879
:1059400050002978204400EB0110A0F804642A8953
:1059500071E011B1012927D02DE0B4F85010214495
:1059600001EB0010B0F80414C1F30901A0F804140D
:1059700000F204403E2E07D97109F20600D1491EFB
:10598000028847EA812107E04EB17108F20700D092
:10599000491C028808EA81210A4302800BE0018841
:1059A00041F40041018006E0B4F85010214401EBBD
:1059B0000010A0F804642A89B3B22046696900F097
:1059C0008FF96869304468612969286A884202D978
:1059D000801B286202E00646C5F82090687810B166
:1059E000012836D026E0B4F850002978204400EB96
:1059F0000110B0F80C14C1F30901A0F80C1400F266
:105A00000C403E2E07D97109F20600D1491E0288CA
:105A100047EA812107E04EB17108F20700D0491C26
:105A2000028808EA81210A43028003E0018841F4E8
:105A3000004101806A89B3B22046696900F050F9DB
:105A4000297834F8210048F6BF72104080F0300009
:105A50000FE1B4F850100819297800EB0110CFE6D7
:105A60002A7834F8220048F68F63184040EA0A008A
:105A700024F82200B4F850002A78204400EB0210E9
:105A80008BB2A0F804342A89D6E7A9692869814233
:105A900002D9091AA96102E00846C5F81890B4F8BD
:105AA00050102A78214401EB0211B1F80C24C2F302
:105AB0000902A1F80C2401F20C413E287DD94209CB
:105AC000C00600D1521E088847EA82220AE00888F0
:105AD00040F4004007E04208C00700D0521C08888C
